{
  "contractName": "CharityMedal",
  "abi": [
    {
      "inputs": [
        {
          "internalType": "address",
          "name": "_charityFactoryAddress",
          "type": "address"
        }
      ],
      "stateMutability": "nonpayable",
      "type": "constructor"
    },
    {
      "anonymous": false,
      "inputs": [
        {
          "indexed": true,
          "internalType": "address",
          "name": "owner",
          "type": "address"
        },
        {
          "indexed": true,
          "internalType": "address",
          "name": "approved",
          "type": "address"
        },
        {
          "indexed": true,
          "internalType": "uint256",
          "name": "tokenId",
          "type": "uint256"
        }
      ],
      "name": "Approval",
      "type": "event"
    },
    {
      "anonymous": false,
      "inputs": [
        {
          "indexed": true,
          "internalType": "address",
          "name": "owner",
          "type": "address"
        },
        {
          "indexed": true,
          "internalType": "address",
          "name": "operator",
          "type": "address"
        },
        {
          "indexed": false,
          "internalType": "bool",
          "name": "approved",
          "type": "bool"
        }
      ],
      "name": "ApprovalForAll",
      "type": "event"
    },
    {
      "anonymous": false,
      "inputs": [
        {
          "indexed": true,
          "internalType": "address",
          "name": "previousOwner",
          "type": "address"
        },
        {
          "indexed": true,
          "internalType": "address",
          "name": "newOwner",
          "type": "address"
        }
      ],
      "name": "OwnershipTransferred",
      "type": "event"
    },
    {
      "anonymous": false,
      "inputs": [
        {
          "indexed": true,
          "internalType": "address",
          "name": "from",
          "type": "address"
        },
        {
          "indexed": true,
          "internalType": "address",
          "name": "to",
          "type": "address"
        },
        {
          "indexed": true,
          "internalType": "uint256",
          "name": "tokenId",
          "type": "uint256"
        }
      ],
      "name": "Transfer",
      "type": "event"
    },
    {
      "inputs": [
        {
          "internalType": "address",
          "name": "to",
          "type": "address"
        },
        {
          "internalType": "uint256",
          "name": "tokenId",
          "type": "uint256"
        }
      ],
      "name": "approve",
      "outputs": [],
      "stateMutability": "nonpayable",
      "type": "function"
    },
    {
      "inputs": [
        {
          "internalType": "address",
          "name": "owner",
          "type": "address"
        }
      ],
      "name": "balanceOf",
      "outputs": [
        {
          "internalType": "uint256",
          "name": "",
          "type": "uint256"
        }
      ],
      "stateMutability": "view",
      "type": "function"
    },
    {
      "inputs": [],
      "name": "baseURI",
      "outputs": [
        {
          "internalType": "string",
          "name": "",
          "type": "string"
        }
      ],
      "stateMutability": "view",
      "type": "function"
    },
    {
      "inputs": [
        {
          "internalType": "uint256",
          "name": "tokenId",
          "type": "uint256"
        }
      ],
      "name": "getApproved",
      "outputs": [
        {
          "internalType": "address",
          "name": "",
          "type": "address"
        }
      ],
      "stateMutability": "view",
      "type": "function"
    },
    {
      "inputs": [
        {
          "internalType": "address",
          "name": "owner",
          "type": "address"
        },
        {
          "internalType": "address",
          "name": "operator",
          "type": "address"
        }
      ],
      "name": "isApprovedForAll",
      "outputs": [
        {
          "internalType": "bool",
          "name": "",
          "type": "bool"
        }
      ],
      "stateMutability": "view",
      "type": "function"
    },
    {
      "inputs": [],
      "name": "name",
      "outputs": [
        {
          "internalType": "string",
          "name": "",
          "type": "string"
        }
      ],
      "stateMutability": "view",
      "type": "function"
    },
    {
      "inputs": [],
      "name": "owner",
      "outputs": [
        {
          "internalType": "address payable",
          "name": "",
          "type": "address"
        }
      ],
      "stateMutability": "view",
      "type": "function"
    },
    {
      "inputs": [
        {
          "internalType": "uint256",
          "name": "tokenId",
          "type": "uint256"
        }
      ],
      "name": "ownerOf",
      "outputs": [
        {
          "internalType": "address",
          "name": "",
          "type": "address"
        }
      ],
      "stateMutability": "view",
      "type": "function"
    },
    {
      "inputs": [
        {
          "internalType": "address",
          "name": "from",
          "type": "address"
        },
        {
          "internalType": "address",
          "name": "to",
          "type": "address"
        },
        {
          "internalType": "uint256",
          "name": "tokenId",
          "type": "uint256"
        }
      ],
      "name": "safeTransferFrom",
      "outputs": [],
      "stateMutability": "nonpayable",
      "type": "function"
    },
    {
      "inputs": [
        {
          "internalType": "address",
          "name": "from",
          "type": "address"
        },
        {
          "internalType": "address",
          "name": "to",
          "type": "address"
        },
        {
          "internalType": "uint256",
          "name": "tokenId",
          "type": "uint256"
        },
        {
          "internalType": "bytes",
          "name": "_data",
          "type": "bytes"
        }
      ],
      "name": "safeTransferFrom",
      "outputs": [],
      "stateMutability": "nonpayable",
      "type": "function"
    },
    {
      "inputs": [
        {
          "internalType": "address",
          "name": "operator",
          "type": "address"
        },
        {
          "internalType": "bool",
          "name": "approved",
          "type": "bool"
        }
      ],
      "name": "setApprovalForAll",
      "outputs": [],
      "stateMutability": "nonpayable",
      "type": "function"
    },
    {
      "inputs": [
        {
          "internalType": "bytes4",
          "name": "interfaceId",
          "type": "bytes4"
        }
      ],
      "name": "supportsInterface",
      "outputs": [
        {
          "internalType": "bool",
          "name": "",
          "type": "bool"
        }
      ],
      "stateMutability": "view",
      "type": "function"
    },
    {
      "inputs": [],
      "name": "symbol",
      "outputs": [
        {
          "internalType": "string",
          "name": "",
          "type": "string"
        }
      ],
      "stateMutability": "view",
      "type": "function"
    },
    {
      "inputs": [
        {
          "internalType": "uint256",
          "name": "index",
          "type": "uint256"
        }
      ],
      "name": "tokenByIndex",
      "outputs": [
        {
          "internalType": "uint256",
          "name": "",
          "type": "uint256"
        }
      ],
      "stateMutability": "view",
      "type": "function"
    },
    {
      "inputs": [
        {
          "internalType": "address",
          "name": "owner",
          "type": "address"
        },
        {
          "internalType": "uint256",
          "name": "index",
          "type": "uint256"
        }
      ],
      "name": "tokenOfOwnerByIndex",
      "outputs": [
        {
          "internalType": "uint256",
          "name": "",
          "type": "uint256"
        }
      ],
      "stateMutability": "view",
      "type": "function"
    },
    {
      "inputs": [
        {
          "internalType": "uint256",
          "name": "tokenId",
          "type": "uint256"
        }
      ],
      "name": "tokenURI",
      "outputs": [
        {
          "internalType": "string",
          "name": "",
          "type": "string"
        }
      ],
      "stateMutability": "view",
      "type": "function"
    },
    {
      "inputs": [],
      "name": "totalSupply",
      "outputs": [
        {
          "internalType": "uint256",
          "name": "",
          "type": "uint256"
        }
      ],
      "stateMutability": "view",
      "type": "function"
    },
    {
      "inputs": [
        {
          "internalType": "address",
          "name": "from",
          "type": "address"
        },
        {
          "internalType": "address",
          "name": "to",
          "type": "address"
        },
        {
          "internalType": "uint256",
          "name": "tokenId",
          "type": "uint256"
        }
      ],
      "name": "transferFrom",
      "outputs": [],
      "stateMutability": "nonpayable",
      "type": "function"
    },
    {
      "inputs": [
        {
          "internalType": "address payable",
          "name": "newOwner",
          "type": "address"
        }
      ],
      "name": "transferOwnership",
      "outputs": [],
      "stateMutability": "nonpayable",
      "type": "function"
    },
    {
      "inputs": [
        {
          "internalType": "address",
          "name": "_newAddress",
          "type": "address"
        }
      ],
      "name": "updateCharityFactoryAddress",
      "outputs": [],
      "stateMutability": "nonpayable",
      "type": "function"
    },
    {
      "inputs": [
        {
          "internalType": "string",
          "name": "_uri",
          "type": "string"
        }
      ],
      "name": "updateItemURI",
      "outputs": [],
      "stateMutability": "nonpayable",
      "type": "function"
    },
    {
      "inputs": [
        {
          "internalType": "address",
          "name": "player",
          "type": "address"
        }
      ],
      "name": "awardItem",
      "outputs": [
        {
          "internalType": "uint256",
          "name": "",
          "type": "uint256"
        }
      ],
      "stateMutability": "nonpayable",
      "type": "function"
    },
    {
      "inputs": [
        {
          "internalType": "address",
          "name": "player",
          "type": "address"
        }
      ],
      "name": "getItemIds",
      "outputs": [
        {
          "internalType": "uint256[]",
          "name": "itemIds",
          "type": "uint256[]"
        }
      ],
      "stateMutability": "view",
      "type": "function"
    },
    {
      "inputs": [],
      "name": "getOwners",
      "outputs": [
        {
          "internalType": "address[]",
          "name": "_Owners",
          "type": "address[]"
        }
      ],
      "stateMutability": "view",
      "type": "function"
    },
    {
      "inputs": [],
      "name": "destroy",
      "outputs": [],
      "stateMutability": "nonpayable",
      "type": "function"
    }
  ],
  "bytecode": "0x608060405260405180608001604052806043815260200162003a6560439139600c9080519060200190620000359291906200030c565b503480156200004357600080fd5b5060405162003aa838038062003aa8833981810160405260208110156200006957600080fd5b81019080805190602001909291905050506040518060400160405280600c81526020017f436861726974794d6564616c00000000000000000000000000000000000000008152506040518060400160405280600281526020017f434d000000000000000000000000000000000000000000000000000000000000815250620000fe6301ffc9a760e01b6200020360201b60201c565b8160069080519060200190620001169291906200030c565b5080600790805190602001906200012f9291906200030c565b50620001486380ac58cd60e01b6200020360201b60201c565b62000160635b5e139f60e01b6200020360201b60201c565b6200017863780e9d6360e01b6200020360201b60201c565b505033600a60006101000a81548173ffffffffffffffffffffffffffffffffffffffff021916908373ffffffffffffffffffffffffffffffffffffffff16021790555080600d60006101000a81548173ffffffffffffffffffffffffffffffffffffffff021916908373ffffffffffffffffffffffffffffffffffffffff16021790555050620003b2565b63ffffffff60e01b817bffffffffffffffffffffffffffffffffffffffffffffffffffffffff19161415620002a0576040517f08c379a000000000000000000000000000000000000000000000000000000000815260040180806020018281038252601c8152602001807f4552433136353a20696e76616c696420696e746572666163652069640000000081525060200191505060405180910390fd5b6001600080837bffffffffffffffffffffffffffffffffffffffffffffffffffffffff19167bffffffffffffffffffffffffffffffffffffffffffffffffffffffff1916815260200190815260200160002060006101000a81548160ff02191690831515021790555050565b828054600181600116156101000203166002900490600052602060002090601f016020900481019282601f106200034f57805160ff191683800117855562000380565b8280016001018555821562000380579182015b828111156200037f57825182559160200191906001019062000362565b5b5090506200038f919062000393565b5090565b5b80821115620003ae57600081600090555060010162000394565b5090565b6136a380620003c26000396000f3fe608060405234801561001057600080fd5b50600436106101735760003560e01c806370a08231116100de578063b86c7c9311610097578063e985e9c511610071578063e985e9c5146109ce578063f0b149ec14610a48578063f2fb212014610b03578063f2fde38b14610b5b57610173565b8063b86c7c9314610789578063b88d4fde14610822578063c87b56dd1461092757610173565b806370a08231146105c157806383197ef0146106195780638da5cb5b1461062357806395d89b4114610657578063a0e67e2b146106da578063a22cb4651461073957610173565b80632f745c59116101305780632f745c591461039057806342842e0e146103f25780634e672293146104605780634f6ccce7146104a45780636352211e146104e65780636c0360eb1461053e57610173565b806301ffc9a71461017857806306fdde03146101db578063081812fc1461025e578063095ea7b3146102b657806318160ddd1461030457806323b872dd14610322575b600080fd5b6101c36004803603602081101561018e57600080fd5b8101908080357bffffffffffffffffffffffffffffffffffffffffffffffffffffffff19169060200190929190505050610b9f565b60405180821515815260200191505060405180910390f35b6101e3610c06565b6040518080602001828103825283818151815260200191508051906020019080838360005b83811015610223578082015181840152602081019050610208565b50505050905090810190601f1680156102505780820380516001836020036101000a031916815260200191505b509250505060405180910390f35b61028a6004803603602081101561027457600080fd5b8101908080359060200190929190505050610ca8565b604051808273ffffffffffffffffffffffffffffffffffffffff16815260200191505060405180910390f35b610302600480360360408110156102cc57600080fd5b81019080803573ffffffffffffffffffffffffffffffffffffffff16906020019092919080359060200190929190505050610d43565b005b61030c610e87565b6040518082815260200191505060405180910390f35b61038e6004803603606081101561033857600080fd5b81019080803573ffffffffffffffffffffffffffffffffffffffff169060200190929190803573ffffffffffffffffffffffffffffffffffffffff16906020019092919080359060200190929190505050610e98565b005b6103dc600480360360408110156103a657600080fd5b81019080803573ffffffffffffffffffffffffffffffffffffffff16906020019092919080359060200190929190505050610f0e565b6040518082815260200191505060405180910390f35b61045e6004803603606081101561040857600080fd5b81019080803573ffffffffffffffffffffffffffffffffffffffff169060200190929190803573ffffffffffffffffffffffffffffffffffffffff16906020019092919080359060200190929190505050610f69565b005b6104a26004803603602081101561047657600080fd5b81019080803573ffffffffffffffffffffffffffffffffffffffff169060200190929190505050610f89565b005b6104d0600480360360208110156104ba57600080fd5b8101908080359060200190929190505050611090565b6040518082815260200191505060405180910390f35b610512600480360360208110156104fc57600080fd5b81019080803590602001909291905050506110b3565b604051808273ffffffffffffffffffffffffffffffffffffffff16815260200191505060405180910390f35b6105466110ea565b6040518080602001828103825283818151815260200191508051906020019080838360005b8381101561058657808201518184015260208101905061056b565b50505050905090810190601f1680156105b35780820380516001836020036101000a031916815260200191505b509250505060405180910390f35b610603600480360360208110156105d757600080fd5b81019080803573ffffffffffffffffffffffffffffffffffffffff16906020019092919050505061118c565b6040518082815260200191505060405180910390f35b610621611261565b005b61062b61133d565b604051808273ffffffffffffffffffffffffffffffffffffffff16815260200191505060405180910390f35b61065f611363565b6040518080602001828103825283818151815260200191508051906020019080838360005b8381101561069f578082015181840152602081019050610684565b50505050905090810190601f1680156106cc5780820380516001836020036101000a031916815260200191505b509250505060405180910390f35b6106e2611405565b6040518080602001828103825283818151815260200191508051906020019060200280838360005b8381101561072557808201518184015260208101905061070a565b505050509050019250505060405180910390f35b6107876004803603604081101561074f57600080fd5b81019080803573ffffffffffffffffffffffffffffffffffffffff169060200190929190803515159060200190929190505050611493565b005b6107cb6004803603602081101561079f57600080fd5b81019080803573ffffffffffffffffffffffffffffffffffffffff169060200190929190505050611649565b6040518080602001828103825283818151815260200191508051906020019060200280838360005b8381101561080e5780820151818401526020810190506107f3565b505050509050019250505060405180910390f35b6109256004803603608081101561083857600080fd5b81019080803573ffffffffffffffffffffffffffffffffffffffff169060200190929190803573ffffffffffffffffffffffffffffffffffffffff169060200190929190803590602001909291908035906020019064010000000081111561089f57600080fd5b8201836020820111156108b157600080fd5b803590602001918460018302840111640100000000831117156108d357600080fd5b91908080601f016020809104026020016040519081016040528093929190818152602001838380828437600081840152601f19601f8201169050808301925050505050505091929192905050506116e0565b005b6109536004803603602081101561093d57600080fd5b8101908080359060200190929190505050611758565b6040518080602001828103825283818151815260200191508051906020019080838360005b83811015610993578082015181840152602081019050610978565b50505050905090810190601f1680156109c05780820380516001836020036101000a031916815260200191505b509250505060405180910390f35b610a30600480360360408110156109e457600080fd5b81019080803573ffffffffffffffffffffffffffffffffffffffff169060200190929190803573ffffffffffffffffffffffffffffffffffffffff169060200190929190505050611a29565b60405180821515815260200191505060405180910390f35b610b0160048036036020811015610a5e57600080fd5b8101908080359060200190640100000000811115610a7b57600080fd5b820183602082011115610a8d57600080fd5b80359060200191846001830284011164010000000083111715610aaf57600080fd5b91908080601f016020809104026020016040519081016040528093929190818152602001838380828437600081840152601f19601f820116905080830192505050505050509192919290505050611abd565b005b610b4560048036036020811015610b1957600080fd5b81019080803573ffffffffffffffffffffffffffffffffffffffff169060200190929190505050611b9a565b6040518082815260200191505060405180910390f35b610b9d60048036036020811015610b7157600080fd5b81019080803573ffffffffffffffffffffffffffffffffffffffff169060200190929190505050611e43565b005b6000806000837bffffffffffffffffffffffffffffffffffffffffffffffffffffffff19167bffffffffffffffffffffffffffffffffffffffffffffffffffffffff1916815260200190815260200160002060009054906101000a900460ff169050919050565b606060068054600181600116156101000203166002900480601f016020809104026020016040519081016040528092919081815260200182805460018160011615610100020316600290048015610c9e5780601f10610c7357610100808354040283529160200191610c9e565b820191906000526020600020905b815481529060010190602001808311610c8157829003601f168201915b5050505050905090565b6000610cb382612069565b610d08576040517f08c379a000000000000000000000000000000000000000000000000000000000815260040180806020018281038252602c81526020018061356c602c913960400191505060405180910390fd5b6004600083815260200190815260200160002060009054906101000a900473ffffffffffffffffffffffffffffffffffffffff169050919050565b6000610d4e826110b3565b90508073ffffffffffffffffffffffffffffffffffffffff168373ffffffffffffffffffffffffffffffffffffffff161415610dd5576040517f08c379a000000000000000000000000000000000000000000000000000000000815260040180806020018281038252602181526020018061361c6021913960400191505060405180910390fd5b8073ffffffffffffffffffffffffffffffffffffffff16610df4612086565b73ffffffffffffffffffffffffffffffffffffffff161480610e235750610e2281610e1d612086565b611a29565b5b610e78576040517f08c379a00000000000000000000000000000000000000000000000000000000081526004018080602001828103825260388152602001806134bf6038913960400191505060405180910390fd5b610e82838361208e565b505050565b6000610e936002612147565b905090565b610ea9610ea3612086565b8261215c565b610efe576040517f08c379a000000000000000000000000000000000000000000000000000000000815260040180806020018281038252603181526020018061363d6031913960400191505060405180910390fd5b610f09838383612250565b505050565b6000610f6182600160008673ffffffffffffffffffffffffffffffffffffffff1673ffffffffffffffffffffffffffffffffffffffff16815260200190815260200160002061249390919063ffffffff16565b905092915050565b610f84838383604051806020016040528060008152506116e0565b505050565b600a60009054906101000a900473ffffffffffffffffffffffffffffffffffffffff1673ffffffffffffffffffffffffffffffffffffffff163373ffffffffffffffffffffffffffffffffffffffff161461104c576040517f08c379a00000000000000000000000000000000000000000000000000000000081526004018080602001828103825260138152602001807f4d75737420636f6e7472616374206f776e65720000000000000000000000000081525060200191505060405180910390fd5b80600d60006101000a81548173ffffffffffffffffffffffffffffffffffffffff021916908373ffffffffffffffffffffffffffffffffffffffff16021790555050565b6000806110a78360026124ad90919063ffffffff16565b50905080915050919050565b60006110e3826040518060600160405280602981526020016135216029913960026124d99092919063ffffffff16565b9050919050565b606060098054600181600116156101000203166002900480601f0160208091040260200160405190810160405280929190818152602001828054600181600116156101000203166002900480156111825780601f1061115757610100808354040283529160200191611182565b820191906000526020600020905b81548152906001019060200180831161116557829003601f168201915b5050505050905090565b60008073ffffffffffffffffffffffffffffffffffffffff168273ffffffffffffffffffffffffffffffffffffffff161415611213576040517f08c379a000000000000000000000000000000000000000000000000000000000815260040180806020018281038252602a8152602001806134f7602a913960400191505060405180910390fd5b61125a600160008473ffffffffffffffffffffffffffffffffffffffff1673ffffffffffffffffffffffffffffffffffffffff1681526020019081526020016000206124f8565b9050919050565b600a60009054906101000a900473ffffffffffffffffffffffffffffffffffffffff1673ffffffffffffffffffffffffffffffffffffffff163373ffffffffffffffffffffffffffffffffffffffff1614611324576040517f08c379a00000000000000000000000000000000000000000000000000000000081526004018080602001828103825260138152602001807f4d75737420636f6e7472616374206f776e65720000000000000000000000000081525060200191505060405180910390fd5b3373ffffffffffffffffffffffffffffffffffffffff16ff5b600a60009054906101000a900473ffffffffffffffffffffffffffffffffffffffff1681565b606060078054600181600116156101000203166002900480601f0160208091040260200160405190810160405280929190818152602001828054600181600116156101000203166002900480156113fb5780601f106113d0576101008083540402835291602001916113fb565b820191906000526020600020905b8154815290600101906020018083116113de57829003601f168201915b5050505050905090565b6060600f80548060200260200160405190810160405280929190818152602001828054801561148957602002820191906000526020600020905b8160009054906101000a900473ffffffffffffffffffffffffffffffffffffffff1673ffffffffffffffffffffffffffffffffffffffff168152602001906001019080831161143f575b5050505050905090565b61149b612086565b73ffffffffffffffffffffffffffffffffffffffff168273ffffffffffffffffffffffffffffffffffffffff16141561153c576040517f08c379a00000000000000000000000000000000000000000000000000000000081526004018080602001828103825260198152602001807f4552433732313a20617070726f766520746f2063616c6c65720000000000000081525060200191505060405180910390fd5b8060056000611549612086565b73ffffffffffffffffffffffffffffffffffffffff1673ffffffffffffffffffffffffffffffffffffffff16815260200190815260200160002060008473ffffffffffffffffffffffffffffffffffffffff1673ffffffffffffffffffffffffffffffffffffffff16815260200190815260200160002060006101000a81548160ff0219169083151502179055508173ffffffffffffffffffffffffffffffffffffffff166115f6612086565b73ffffffffffffffffffffffffffffffffffffffff167f17307eab39ab6107e8899845ad3d59bd9653f200f220920489ca2b5937696c318360405180821515815260200191505060405180910390a35050565b6060600e60008373ffffffffffffffffffffffffffffffffffffffff1673ffffffffffffffffffffffffffffffffffffffff1681526020019081526020016000208054806020026020016040519081016040528092919081815260200182805480156116d457602002820191906000526020600020905b8154815260200190600101908083116116c0575b50505050509050919050565b6116f16116eb612086565b8361215c565b611746576040517f08c379a000000000000000000000000000000000000000000000000000000000815260040180806020018281038252603181526020018061363d6031913960400191505060405180910390fd5b6117528484848461250d565b50505050565b606061176382612069565b6117b8576040517f08c379a000000000000000000000000000000000000000000000000000000000815260040180806020018281038252602f8152602001806135ed602f913960400191505060405180910390fd5b6060600860008481526020019081526020016000208054600181600116156101000203166002900480601f0160208091040260200160405190810160405280929190818152602001828054600181600116156101000203166002900480156118615780601f1061183657610100808354040283529160200191611861565b820191906000526020600020905b81548152906001019060200180831161184457829003601f168201915b5050505050905060606118726110ea565b9050600081511415611888578192505050611a24565b6000825111156119595780826040516020018083805190602001908083835b602083106118ca57805182526020820191506020810190506020830392506118a7565b6001836020036101000a03801982511681845116808217855250505050505090500182805190602001908083835b6020831061191b57805182526020820191506020810190506020830392506118f8565b6001836020036101000a0380198251168184511680821785525050505050509050019250505060405160208183030381529060405292505050611a24565b806119638561257f565b6040516020018083805190602001908083835b602083106119995780518252602082019150602081019050602083039250611976565b6001836020036101000a03801982511681845116808217855250505050505090500182805190602001908083835b602083106119ea57805182526020820191506020810190506020830392506119c7565b6001836020036101000a03801982511681845116808217855250505050505090500192505050604051602081830303815290604052925050505b919050565b6000600560008473ffffffffffffffffffffffffffffffffffffffff1673ffffffffffffffffffffffffffffffffffffffff16815260200190815260200160002060008373ffffffffffffffffffffffffffffffffffffffff1673ffffffffffffffffffffffffffffffffffffffff16815260200190815260200160002060009054906101000a900460ff16905092915050565b600a60009054906101000a900473ffffffffffffffffffffffffffffffffffffffff1673ffffffffffffffffffffffffffffffffffffffff163373ffffffffffffffffffffffffffffffffffffffff1614611b80576040517f08c379a00000000000000000000000000000000000000000000000000000000081526004018080602001828103825260138152602001807f4d75737420636f6e7472616374206f776e65720000000000000000000000000081525060200191505060405180910390fd5b80600c9080519060200190611b96929190613357565b5050565b6000600d60009054906101000a900473ffffffffffffffffffffffffffffffffffffffff1673ffffffffffffffffffffffffffffffffffffffff163373ffffffffffffffffffffffffffffffffffffffff1614611c5f576040517f08c379a00000000000000000000000000000000000000000000000000000000081526004018080602001828103825260138152602001807f4d7573742043686172697479466163746f72790000000000000000000000000081525060200191505060405180910390fd5b611c69600b6126c6565b6000611c75600b6126dc565b9050611c8183826126ea565b611d2581600c8054600181600116156101000203166002900480601f016020809104026020016040519081016040528092919081815260200182805460018160011615610100020316600290048015611d1b5780601f10611cf057610100808354040283529160200191611d1b565b820191906000526020600020905b815481529060010190602001808311611cfe57829003601f168201915b50505050506128de565b6000600e60008573ffffffffffffffffffffffffffffffffffffffff1673ffffffffffffffffffffffffffffffffffffffff168152602001908152602001600020805490501415611dd457600f839080600181540180825580915050600190039060005260206000200160009091909190916101000a81548173ffffffffffffffffffffffffffffffffffffffff021916908373ffffffffffffffffffffffffffffffffffffffff1602179055505b600e60008473ffffffffffffffffffffffffffffffffffffffff1673ffffffffffffffffffffffffffffffffffffffff16815260200190815260200160002081908060018154018082558091505060019003906000526020600020016000909190919091505580915050919050565b600a60009054906101000a900473ffffffffffffffffffffffffffffffffffffffff1673ffffffffffffffffffffffffffffffffffffffff163373ffffffffffffffffffffffffffffffffffffffff1614611f06576040517f08c379a00000000000000000000000000000000000000000000000000000000081526004018080602001828103825260138152602001807f4d75737420636f6e7472616374206f776e65720000000000000000000000000081525060200191505060405180910390fd5b600073ffffffffffffffffffffffffffffffffffffffff168173ffffffffffffffffffffffffffffffffffffffff161415611fa9576040517f08c379a00000000000000000000000000000000000000000000000000000000081526004018080602001828103825260138152602001807f4d75737420636f6e7472616374206f776e65720000000000000000000000000081525060200191505060405180910390fd5b8073ffffffffffffffffffffffffffffffffffffffff16600a60009054906101000a900473ffffffffffffffffffffffffffffffffffffffff1673ffffffffffffffffffffffffffffffffffffffff167f8be0079c531659141344cd1fd0a4f28419497f9722a3daafe3b4186f6b6457e060405160405180910390a380600a60006101000a81548173ffffffffffffffffffffffffffffffffffffffff021916908373ffffffffffffffffffffffffffffffffffffffff16021790555050565b600061207f82600261296890919063ffffffff16565b9050919050565b600033905090565b816004600083815260200190815260200160002060006101000a81548173ffffffffffffffffffffffffffffffffffffffff021916908373ffffffffffffffffffffffffffffffffffffffff160217905550808273ffffffffffffffffffffffffffffffffffffffff16612101836110b3565b73ffffffffffffffffffffffffffffffffffffffff167f8c5be1e5ebec7d5bd14f71427d1e84f3dd0314c0f7b2291e5b200ac8c7c3b92560405160405180910390a45050565b600061215582600001612982565b9050919050565b600061216782612069565b6121bc576040517f08c379a000000000000000000000000000000000000000000000000000000000815260040180806020018281038252602c815260200180613493602c913960400191505060405180910390fd5b60006121c7836110b3565b90508073ffffffffffffffffffffffffffffffffffffffff168473ffffffffffffffffffffffffffffffffffffffff16148061223657508373ffffffffffffffffffffffffffffffffffffffff1661221e84610ca8565b73ffffffffffffffffffffffffffffffffffffffff16145b8061224757506122468185611a29565b5b91505092915050565b8273ffffffffffffffffffffffffffffffffffffffff16612270826110b3565b73ffffffffffffffffffffffffffffffffffffffff16146122dc576040517f08c379a00000000000000000000000000000000000000000000000000000000081526004018080602001828103825260298152602001806135c46029913960400191505060405180910390fd5b600073ffffffffffffffffffffffffffffffffffffffff168273ffffffffffffffffffffffffffffffffffffffff161415612362576040517f08c379a00000000000000000000000000000000000000000000000000000000081526004018080602001828103825260248152602001806134496024913960400191505060405180910390fd5b61236d838383612993565b61237860008261208e565b6123c981600160008673ffffffffffffffffffffffffffffffffffffffff1673ffffffffffffffffffffffffffffffffffffffff16815260200190815260200160002061299890919063ffffffff16565b5061241b81600160008573ffffffffffffffffffffffffffffffffffffffff1673ffffffffffffffffffffffffffffffffffffffff1681526020019081526020016000206129b290919063ffffffff16565b50612432818360026129cc9092919063ffffffff16565b50808273ffffffffffffffffffffffffffffffffffffffff168473ffffffffffffffffffffffffffffffffffffffff167fddf252ad1be2c89b69c2b068fc378daa952ba7f163c4a11628f55a4df523b3ef60405160405180910390a4505050565b60006124a28360000183612a01565b60001c905092915050565b6000806000806124c08660000186612a84565b915091508160001c8160001c9350935050509250929050565b60006124ec846000018460001b84612b1d565b60001c90509392505050565b600061250682600001612c13565b9050919050565b612518848484612250565b61252484848484612c24565b612579576040517f08c379a00000000000000000000000000000000000000000000000000000000081526004018080602001828103825260328152602001806134176032913960400191505060405180910390fd5b50505050565b606060008214156125c7576040518060400160405280600181526020017f300000000000000000000000000000000000000000000000000000000000000081525090506126c1565b600082905060005b600082146125f1578080600101915050600a82816125e957fe5b0491506125cf565b60608167ffffffffffffffff8111801561260a57600080fd5b506040519080825280601f01601f19166020018201604052801561263d5781602001600182028036833780820191505090505b50905060006001830390508593505b600084146126b957600a848161265e57fe5b0660300160f81b8282806001900393508151811061267857fe5b60200101907effffffffffffffffffffffffffffffffffffffffffffffffffffffffffffff1916908160001a905350600a84816126b157fe5b04935061264c565b819450505050505b919050565b6001816000016000828254019250508190555050565b600081600001549050919050565b600073ffffffffffffffffffffffffffffffffffffffff168273ffffffffffffffffffffffffffffffffffffffff16141561278d576040517f08c379a00000000000000000000000000000000000000000000000000000000081526004018080602001828103825260208152602001807f4552433732313a206d696e7420746f20746865207a65726f206164647265737381525060200191505060405180910390fd5b61279681612069565b15612809576040517f08c379a000000000000000000000000000000000000000000000000000000000815260040180806020018281038252601c8152602001807f4552433732313a20746f6b656e20616c7265616479206d696e7465640000000081525060200191505060405180910390fd5b61281560008383612993565b61286681600160008573ffffffffffffffffffffffffffffffffffffffff1673ffffffffffffffffffffffffffffffffffffffff1681526020019081526020016000206129b290919063ffffffff16565b5061287d818360026129cc9092919063ffffffff16565b50808273ffffffffffffffffffffffffffffffffffffffff16600073ffffffffffffffffffffffffffffffffffffffff167fddf252ad1be2c89b69c2b068fc378daa952ba7f163c4a11628f55a4df523b3ef60405160405180910390a45050565b6128e782612069565b61293c576040517f08c379a000000000000000000000000000000000000000000000000000000000815260040180806020018281038252602c815260200180613598602c913960400191505060405180910390fd5b80600860008481526020019081526020016000209080519060200190612963929190613357565b505050565b600061297a836000018360001b612e3d565b905092915050565b600081600001805490509050919050565b505050565b60006129aa836000018360001b612e60565b905092915050565b60006129c4836000018360001b612f48565b905092915050565b60006129f8846000018460001b8473ffffffffffffffffffffffffffffffffffffffff1660001b612fb8565b90509392505050565b600081836000018054905011612a62576040517f08c379a00000000000000000000000000000000000000000000000000000000081526004018080602001828103825260228152602001806133f56022913960400191505060405180910390fd5b826000018281548110612a7157fe5b9060005260206000200154905092915050565b60008082846000018054905011612ae6576040517f08c379a000000000000000000000000000000000000000000000000000000000815260040180806020018281038252602281526020018061354a6022913960400191505060405180910390fd5b6000846000018481548110612af757fe5b906000526020600020906002020190508060000154816001015492509250509250929050565b60008084600101600085815260200190815260200160002054905060008114158390612be4576040517f08c379a00000000000000000000000000000000000000000000000000000000081526004018080602001828103825283818151815260200191508051906020019080838360005b83811015612ba9578082015181840152602081019050612b8e565b50505050905090810190601f168015612bd65780820380516001836020036101000a031916815260200191505b509250505060405180910390fd5b50846000016001820381548110612bf757fe5b9060005260206000209060020201600101549150509392505050565b600081600001805490509050919050565b6000612c458473ffffffffffffffffffffffffffffffffffffffff16613094565b612c525760019050612e35565b6060612dbc63150b7a0260e01b612c67612086565b888787604051602401808573ffffffffffffffffffffffffffffffffffffffff1681526020018473ffffffffffffffffffffffffffffffffffffffff16815260200183815260200180602001828103825283818151815260200191508051906020019080838360005b83811015612ceb578082015181840152602081019050612cd0565b50505050905090810190601f168015612d185780820380516001836020036101000a031916815260200191505b5095505050505050604051602081830303815290604052907bffffffffffffffffffffffffffffffffffffffffffffffffffffffff19166020820180517bffffffffffffffffffffffffffffffffffffffffffffffffffffffff8381831617835250505050604051806060016040528060328152602001613417603291398773ffffffffffffffffffffffffffffffffffffffff166130a79092919063ffffffff16565b90506000818060200190516020811015612dd557600080fd5b8101908080519060200190929190505050905063150b7a0260e01b7bffffffffffffffffffffffffffffffffffffffffffffffffffffffff1916817bffffffffffffffffffffffffffffffffffffffffffffffffffffffff191614925050505b949350505050565b600080836001016000848152602001908152602001600020541415905092915050565b60008083600101600084815260200190815260200160002054905060008114612f3c5760006001820390506000600186600001805490500390506000866000018281548110612eab57fe5b9060005260206000200154905080876000018481548110612ec857fe5b9060005260206000200181905550600183018760010160008381526020019081526020016000208190555086600001805480612f0057fe5b60019003818190600052602060002001600090559055866001016000878152602001908152602001600020600090556001945050505050612f42565b60009150505b92915050565b6000612f5483836130bf565b612fad578260000182908060018154018082558091505060019003906000526020600020016000909190919091505582600001805490508360010160008481526020019081526020016000208190555060019050612fb2565b600090505b92915050565b600080846001016000858152602001908152602001600020549050600081141561305f5784600001604051806040016040528086815260200185815250908060018154018082558091505060019003906000526020600020906002020160009091909190915060008201518160000155602082015181600101555050846000018054905085600101600086815260200190815260200160002081905550600191505061308d565b8285600001600183038154811061307257fe5b90600052602060002090600202016001018190555060009150505b9392505050565b600080823b905060008111915050919050565b60606130b684846000856130e2565b90509392505050565b600080836001016000848152602001908152602001600020541415905092915050565b60608247101561313d576040517f08c379a000000000000000000000000000000000000000000000000000000000815260040180806020018281038252602681526020018061346d6026913960400191505060405180910390fd5b61314685613094565b6131b8576040517f08c379a000000000000000000000000000000000000000000000000000000000815260040180806020018281038252601d8152602001807f416464726573733a2063616c6c20746f206e6f6e2d636f6e747261637400000081525060200191505060405180910390fd5b600060608673ffffffffffffffffffffffffffffffffffffffff1685876040518082805190602001908083835b6020831061320857805182526020820191506020810190506020830392506131e5565b6001836020036101000a03801982511681845116808217855250505050505090500191505060006040518083038185875af1925050503d806000811461326a576040519150601f19603f3d011682016040523d82523d6000602084013e61326f565b606091505b509150915061327f82828661328b565b92505050949350505050565b6060831561329b57829050613350565b6000835111156132ae5782518084602001fd5b816040517f08c379a00000000000000000000000000000000000000000000000000000000081526004018080602001828103825283818151815260200191508051906020019080838360005b838110156133155780820151818401526020810190506132fa565b50505050905090810190601f1680156133425780820380516001836020036101000a031916815260200191505b509250505060405180910390fd5b9392505050565b828054600181600116156101000203166002900490600052602060002090601f016020900481019282601f1061339857805160ff19168380011785556133c6565b828001600101855582156133c6579182015b828111156133c55782518255916020019190600101906133aa565b5b5090506133d391906133d7565b5090565b5b808211156133f05760008160009055506001016133d8565b509056fe456e756d657261626c655365743a20696e646578206f7574206f6620626f756e64734552433732313a207472616e7366657220746f206e6f6e20455243373231526563656976657220696d706c656d656e7465724552433732313a207472616e7366657220746f20746865207a65726f2061646472657373416464726573733a20696e73756666696369656e742062616c616e636520666f722063616c6c4552433732313a206f70657261746f7220717565727920666f72206e6f6e6578697374656e7420746f6b656e4552433732313a20617070726f76652063616c6c6572206973206e6f74206f776e6572206e6f7220617070726f76656420666f7220616c6c4552433732313a2062616c616e636520717565727920666f7220746865207a65726f20616464726573734552433732313a206f776e657220717565727920666f72206e6f6e6578697374656e7420746f6b656e456e756d657261626c654d61703a20696e646578206f7574206f6620626f756e64734552433732313a20617070726f76656420717565727920666f72206e6f6e6578697374656e7420746f6b656e4552433732314d657461646174613a2055524920736574206f66206e6f6e6578697374656e7420746f6b656e4552433732313a207472616e73666572206f6620746f6b656e2074686174206973206e6f74206f776e4552433732314d657461646174613a2055524920717565727920666f72206e6f6e6578697374656e7420746f6b656e4552433732313a20617070726f76616c20746f2063757272656e74206f776e65724552433732313a207472616e736665722063616c6c6572206973206e6f74206f776e6572206e6f7220617070726f766564a2646970667358221220ddc48ec3912d04f9fdd97c620c5f8306e68faf198cd3bcac25a1f56ccf303c9064736f6c634300060c003368747470733a2f2f697066732e696f2f697066732f516d5a6239796674775356364e455738526644564848724a396447505a6457684178656371545356373877515574",
  "immutableReferences": {},
  "source": "// SPDX-License-Identifier: MIT\r\npragma solidity ^0.6.0;\r\n\r\nimport \"@openzeppelin/contracts/token/ERC721/ERC721.sol\";\r\nimport \"@openzeppelin/contracts/utils/Counters.sol\";\r\nimport \"./lib/Ownable.sol\";\r\n\r\n\r\n// \r\ncontract CharityMedal is ERC721 ,Ownable{\r\n  using Counters for Counters.Counter;\r\n  Counters.Counter private _tokenIds;\r\n  string itemURI = \"https://ipfs.io/ipfs/QmZb9yftwSV6NEW8RfDVHHrJ9dGPZdWhAxecqTSV78wQUt\";\r\n  address charityFactoryAddress;\r\n  mapping(address => uint[]) private myItems;\r\n  address[] private Owners;\r\n\r\n  modifier onlyCharityFactory() {\r\n    require(msg.sender == charityFactoryAddress,'Must CharityFactory');\r\n    _;\r\n  }\r\n\r\n  constructor(address _charityFactoryAddress) public ERC721(\"CharityMedal\", \"CM\") {\r\n    charityFactoryAddress = _charityFactoryAddress;\r\n  }\r\n\r\n  // \r\n  function updateCharityFactoryAddress(address _newAddress) public onlyOwner{\r\n    charityFactoryAddress = _newAddress;\r\n  }\r\n\r\n  //URI\r\n  function updateItemURI(string memory _uri) public onlyOwner{\r\n    itemURI = _uri;\r\n  }\r\n\r\n  // ()\r\n  function awardItem(address player)\r\n    public\r\n    onlyCharityFactory\r\n    returns (uint256)\r\n  {\r\n    _tokenIds.increment();\r\n\r\n    uint256 newItemId = _tokenIds.current();\r\n    _mint(player, newItemId);\r\n    _setTokenURI(newItemId, itemURI);\r\n    if(myItems[player].length==0){\r\n      Owners.push(player);\r\n    }\r\n    myItems[player].push(newItemId);\r\n    return newItemId;\r\n  }\r\n\r\n  //id\r\n  function getItemIds(address player) public view returns(uint[] memory itemIds){\r\n    itemIds = myItems[player];\r\n  }\r\n\r\n  //id\r\n  function getOwners() public view returns(address[] memory _Owners){\r\n    _Owners = Owners;\r\n  }\r\n\r\n  //\r\n  function destroy() public onlyOwner{\r\n    selfdestruct(msg.sender);\r\n  }\r\n}",
  "sourcePath": "/f/BlockChain/CharityMedal/contracts/CharityMedal.sol",
  "compiler": {
    "name": "solc",
    "version": "0.6.12+commit.27d51765.Emscripten.clang"
  },
  "schemaVersion": "3.2.0",
  "updatedAt": "2021-05-21T09:41:14.616Z",
  "devdoc": {
    "kind": "dev",
    "methods": {
      "approve(address,uint256)": {
        "details": "See {IERC721-approve}."
      },
      "balanceOf(address)": {
        "details": "See {IERC721-balanceOf}."
      },
      "baseURI()": {
        "details": "Returns the base URI set via {_setBaseURI}. This will be automatically added as a prefix in {tokenURI} to each token's URI, or to the token ID if no specific URI is set for that token ID."
      },
      "getApproved(uint256)": {
        "details": "See {IERC721-getApproved}."
      },
      "isApprovedForAll(address,address)": {
        "details": "See {IERC721-isApprovedForAll}."
      },
      "name()": {
        "details": "See {IERC721Metadata-name}."
      },
      "ownerOf(uint256)": {
        "details": "See {IERC721-ownerOf}."
      },
      "safeTransferFrom(address,address,uint256)": {
        "details": "See {IERC721-safeTransferFrom}."
      },
      "safeTransferFrom(address,address,uint256,bytes)": {
        "details": "See {IERC721-safeTransferFrom}."
      },
      "setApprovalForAll(address,bool)": {
        "details": "See {IERC721-setApprovalForAll}."
      },
      "supportsInterface(bytes4)": {
        "details": "See {IERC165-supportsInterface}. Time complexity O(1), guaranteed to always use less than 30 000 gas."
      },
      "symbol()": {
        "details": "See {IERC721Metadata-symbol}."
      },
      "tokenByIndex(uint256)": {
        "details": "See {IERC721Enumerable-tokenByIndex}."
      },
      "tokenOfOwnerByIndex(address,uint256)": {
        "details": "See {IERC721Enumerable-tokenOfOwnerByIndex}."
      },
      "tokenURI(uint256)": {
        "details": "See {IERC721Metadata-tokenURI}."
      },
      "totalSupply()": {
        "details": "See {IERC721Enumerable-totalSupply}."
      },
      "transferFrom(address,address,uint256)": {
        "details": "See {IERC721-transferFrom}."
      },
      "transferOwnership(address)": {
        "details": "Allows the current owner to transfer control of the contract to a newOwner.",
        "params": {
          "newOwner": "The address to transfer ownership to."
        }
      }
    },
    "version": 1
  },
  "userdoc": {
    "kind": "user",
    "methods": {},
    "version": 1
  }
}