{
  "contractName": "SponsorWhitelistControl",
  "abi": [
    {
      "inputs": [
        {
          "internalType": "address",
          "name": "contractAddr",
          "type": "address"
        }
      ],
      "name": "getSponsorForGas",
      "outputs": [
        {
          "internalType": "address",
          "name": "",
          "type": "address"
        }
      ],
      "stateMutability": "view",
      "type": "function"
    },
    {
      "inputs": [
        {
          "internalType": "address",
          "name": "contractAddr",
          "type": "address"
        }
      ],
      "name": "getSponsoredBalanceForGas",
      "outputs": [
        {
          "internalType": "uint256",
          "name": "",
          "type": "uint256"
        }
      ],
      "stateMutability": "view",
      "type": "function"
    },
    {
      "inputs": [
        {
          "internalType": "address",
          "name": "contractAddr",
          "type": "address"
        }
      ],
      "name": "getSponsoredGasFeeUpperBound",
      "outputs": [
        {
          "internalType": "uint256",
          "name": "",
          "type": "uint256"
        }
      ],
      "stateMutability": "view",
      "type": "function"
    },
    {
      "inputs": [
        {
          "internalType": "address",
          "name": "contractAddr",
          "type": "address"
        }
      ],
      "name": "getSponsorForCollateral",
      "outputs": [
        {
          "internalType": "address",
          "name": "",
          "type": "address"
        }
      ],
      "stateMutability": "view",
      "type": "function"
    },
    {
      "inputs": [
        {
          "internalType": "address",
          "name": "contractAddr",
          "type": "address"
        }
      ],
      "name": "getSponsoredBalanceForCollateral",
      "outputs": [
        {
          "internalType": "uint256",
          "name": "",
          "type": "uint256"
        }
      ],
      "stateMutability": "view",
      "type": "function"
    },
    {
      "inputs": [
        {
          "internalType": "address",
          "name": "contractAddr",
          "type": "address"
        },
        {
          "internalType": "address",
          "name": "user",
          "type": "address"
        }
      ],
      "name": "isWhitelisted",
      "outputs": [
        {
          "internalType": "bool",
          "name": "",
          "type": "bool"
        }
      ],
      "stateMutability": "view",
      "type": "function"
    },
    {
      "inputs": [
        {
          "internalType": "address",
          "name": "contractAddr",
          "type": "address"
        }
      ],
      "name": "isAllWhitelisted",
      "outputs": [
        {
          "internalType": "bool",
          "name": "",
          "type": "bool"
        }
      ],
      "stateMutability": "view",
      "type": "function"
    },
    {
      "inputs": [
        {
          "internalType": "address",
          "name": "contractAddr",
          "type": "address"
        },
        {
          "internalType": "address[]",
          "name": "addresses",
          "type": "address[]"
        }
      ],
      "name": "addPrivilegeByAdmin",
      "outputs": [],
      "stateMutability": "nonpayable",
      "type": "function"
    },
    {
      "inputs": [
        {
          "internalType": "address",
          "name": "contractAddr",
          "type": "address"
        },
        {
          "internalType": "address[]",
          "name": "addresses",
          "type": "address[]"
        }
      ],
      "name": "removePrivilegeByAdmin",
      "outputs": [],
      "stateMutability": "nonpayable",
      "type": "function"
    },
    {
      "inputs": [
        {
          "internalType": "address",
          "name": "contractAddr",
          "type": "address"
        },
        {
          "internalType": "uint256",
          "name": "upperBound",
          "type": "uint256"
        }
      ],
      "name": "setSponsorForGas",
      "outputs": [],
      "stateMutability": "payable",
      "type": "function"
    },
    {
      "inputs": [
        {
          "internalType": "address",
          "name": "contractAddr",
          "type": "address"
        }
      ],
      "name": "setSponsorForCollateral",
      "outputs": [],
      "stateMutability": "payable",
      "type": "function"
    },
    {
      "inputs": [
        {
          "internalType": "address[]",
          "name": "",
          "type": "address[]"
        }
      ],
      "name": "addPrivilege",
      "outputs": [],
      "stateMutability": "nonpayable",
      "type": "function"
    },
    {
      "inputs": [
        {
          "internalType": "address[]",
          "name": "",
          "type": "address[]"
        }
      ],
      "name": "removePrivilege",
      "outputs": [],
      "stateMutability": "nonpayable",
      "type": "function"
    }
  ],
  "bytecode": "0x608060405234801561001057600080fd5b5061083d806100206000396000f3fe6080604052600436106100c25760003560e01c80638382c3a71161007f578063d2932db611610059578063d2932db6146105ed578063d47e9a57146106b2578063d665f9dd14610717578063e66c1bea1461077c576100c2565b80638382c3a714610486578063b3b28fac14610501578063b6b3527214610566576100c2565b806310128d3e146100c7578063217e055b1461018c57806322effe841461027157806333a1af31146103565780633e3e6428146103d157806379b47faa1461041f575b600080fd5b3480156100d357600080fd5b5061018a600480360360208110156100ea57600080fd5b810190808035906020019064010000000081111561010757600080fd5b82018360208201111561011957600080fd5b8035906020019184602083028401116401000000008311171561013b57600080fd5b919080806020026020016040519081016040528093929190818152602001838360200280828437600081840152601f19601f8201169050808301925050505050505091929192905050506107c0565b005b34801561019857600080fd5b5061026f600480360360408110156101af57600080fd5b81019080803573ffffffffffffffffffffffffffffffffffffffff169060200190929190803590602001906401000000008111156101ec57600080fd5b8201836020820111156101fe57600080fd5b8035906020019184602083028401116401000000008311171561022057600080fd5b919080806020026020016040519081016040528093929190818152602001838360200280828437600081840152601f19601f8201169050808301925050505050505091929192905050506107c3565b005b34801561027d57600080fd5b506103546004803603604081101561029457600080fd5b81019080803573ffffffffffffffffffffffffffffffffffffffff169060200190929190803590602001906401000000008111156102d157600080fd5b8201836020820111156102e357600080fd5b8035906020019184602083028401116401000000008311171561030557600080fd5b919080806020026020016040519081016040528093929190818152602001838360200280828437600081840152601f19601f8201169050808301925050505050505091929192905050506107c7565b005b34801561036257600080fd5b506103a56004803603602081101561037957600080fd5b81019080803573ffffffffffffffffffffffffffffffffffffffff1690602001909291905050506107cb565b604051808273ffffffffffffffffffffffffffffffffffffffff16815260200191505060405180910390f35b61041d600480360360408110156103e757600080fd5b81019080803573ffffffffffffffffffffffffffffffffffffffff169060200190929190803590602001909291905050506107d2565b005b34801561042b57600080fd5b5061046e6004803603602081101561044257600080fd5b81019080803573ffffffffffffffffffffffffffffffffffffffff1690602001909291905050506107d6565b60405180821515815260200191505060405180910390f35b34801561049257600080fd5b506104d5600480360360208110156104a957600080fd5b81019080803573ffffffffffffffffffffffffffffffffffffffff1690602001909291905050506107dd565b604051808273ffffffffffffffffffffffffffffffffffffffff16815260200191505060405180910390f35b34801561050d57600080fd5b506105506004803603602081101561052457600080fd5b81019080803573ffffffffffffffffffffffffffffffffffffffff1690602001909291905050506107e4565b6040518082815260200191505060405180910390f35b34801561057257600080fd5b506105d56004803603604081101561058957600080fd5b81019080803573ffffffffffffffffffffffffffffffffffffffff169060200190929190803573ffffffffffffffffffffffffffffffffffffffff1690602001909291905050506107eb565b60405180821515815260200191505060405180910390f35b3480156105f957600080fd5b506106b06004803603602081101561061057600080fd5b810190808035906020019064010000000081111561062d57600080fd5b82018360208201111561063f57600080fd5b8035906020019184602083028401116401000000008311171561066157600080fd5b919080806020026020016040519081016040528093929190818152602001838360200280828437600081840152601f19601f8201169050808301925050505050505091929192905050506107f3565b005b3480156106be57600080fd5b50610701600480360360208110156106d557600080fd5b81019080803573ffffffffffffffffffffffffffffffffffffffff1690602001909291905050506107f6565b6040518082815260200191505060405180910390f35b34801561072357600080fd5b506107666004803603602081101561073a57600080fd5b81019080803573ffffffffffffffffffffffffffffffffffffffff1690602001909291905050506107fd565b6040518082815260200191505060405180910390f35b6107be6004803603602081101561079257600080fd5b81019080803573ffffffffffffffffffffffffffffffffffffffff169060200190929190505050610804565b005b50565b5050565b5050565b6000919050565b5050565b6000919050565b6000919050565b6000919050565b600092915050565b50565b6000919050565b6000919050565b5056fea2646970667358221220f70b538d775c714ce6d45b83d076daedf583aede80f2c9913abf68f04d220c6e64736f6c634300060c0033",
  "immutableReferences": {},
  "source": "pragma solidity ^0.6.0;\r\n\r\ncontract SponsorWhitelistControl {\r\n  function getSponsorForGas(address contractAddr) public view returns (address) {}\r\n  function getSponsoredBalanceForGas(address contractAddr) public view returns (uint) {}\r\n  function getSponsoredGasFeeUpperBound(address contractAddr) public view returns (uint) {}\r\n  function getSponsorForCollateral(address contractAddr) public view returns (address) {}\r\n  function getSponsoredBalanceForCollateral(address contractAddr) public view returns (uint) {}\r\n  function isWhitelisted(address contractAddr, address user) public view returns (bool) {}\r\n  function isAllWhitelisted(address contractAddr) public view returns (bool) {}\r\n  function addPrivilegeByAdmin(address contractAddr, address[] memory addresses) public {}\r\n  function removePrivilegeByAdmin(address contractAddr, address[] memory addresses) public {}\r\n  function setSponsorForGas(address contractAddr, uint upperBound) public payable {}\r\n  function setSponsorForCollateral(address contractAddr) public payable {}\r\n  function addPrivilege(address[] memory) public {}\r\n  function removePrivilege(address[] memory) public {}\r\n}",
  "sourcePath": "/f/BlockChain/CharityMedal/contracts/lib/SponsorWhitelistControl.sol",
  "compiler": {
    "name": "solc",
    "version": "0.6.12+commit.27d51765.Emscripten.clang"
  },
  "schemaVersion": "3.2.0",
  "updatedAt": "2021-05-22T05:45:25.449Z",
  "devdoc": {
    "kind": "dev",
    "methods": {},
    "version": 1
  },
  "userdoc": {
    "kind": "user",
    "methods": {},
    "version": 1
  }
}